:020000040800F2
:100000000000022055080008A3080008A508000801
:10001000A7080008A9080008AB08000800000000B5
:10002000000000000000000000000000AD08000813
:10003000AF08000800000000B1080008E907000848
:10004000B7080008B9080008BB080008BD08000888
:10005000BF080008C1080008C3080008C508000858
:10006000C7080008C9080008CB080008CD08000828
:10007000CF080008D1080008D3080008D5080008F8
:10008000D7080008D9080008DB080008DD080008C8
:10009000DF080008E1080008E3080008E508000898
:1000A000E7080008E9080008EB080008ED08000868
:1000B000EF080008F1080008F3080008F508000838
:1000C000F7080008F9080008FB080008FD08000808
:1000D000FF080008010900080309000805090008D5
:1000E00007090008090900080B0900080D090008A4
:1000F0000F09000811090008130900081509000874
:1001000017090008190900081B0900081D09000843
:100110001F09000821090008230900082509000813
:1001200027090008290900082B0900082D090008E3
:100130002F090008310900083309000835090008B3
:1001400037090008390900083B0900083D09000883
:100150003F09000841090008430900084509000853
:1001600047090008490900084B0900084D09000823
:100170004F090008510900085309000855090008F3
:10018000570900085909000810B5054C237833B900
:10019000044B13B10448AFF300800123237010BD5A
:1001A0007000002000000000B40C000808B5064BE9
:1001B0001BB106480649AFF300800648036813B137
:1001C000054B03B1984708BD00000000B40C0008BF
:1001D000740000207000002000000000154B002B70
:1001E00008BF134B9D46A3F5803A00218B460F466E
:1001F0001348144A121A00F02FFD0F4B002B00D0A9
:1002000098470E4B002B00D0984700200021044651
:100210000D4600200C490022002300F0BFFC00F036
:10022000F5FC2046294600F035FA00F0C1FC00BF7D
:100230000000080000000220000000000000000094
:10024000700000208E000020DD0B000880B483B019
:1002500000AF78600B46FB70FB78002B0CD04FF49E
:100260006053C4F202034FF46052C4F20202116BF5
:100270007A680A431A630DE04FF46053C4F2020334
:100280004FF46052C4F20202116B7A686FEA020204
:100290000A401A6307F10C07BD4680BC704700BFD7
:1002A00080B500AF4FF0020000F0BAFA80BD00BF89
:1002B00080B582B000AF02460B46FA71BB714FF4B5
:1002C0008063C4F202034FF48062C4F202025269F6
:1002D00022F400525A61BB79002B0CD14FF4806399
:1002E000C4F202034FF48062C4F20202526922F4A3
:1002F00000625A610EE0BB79012B0BD14FF4806391
:10030000C4F202034FF48062C4F20202526942F462
:1003100000625A614FF48063C4F202034FF48062BA
:10032000C4F20202526942F400425A614FF400637F
:10033000C4F20203FA7902F0F0025A614FF48063CA
:10034000C4F202034FF48062C4F20202526922F442
:1003500000425A61FFF7A4FF4FF48063C4F2020326
:100360004FF48062C4F20202526942F400425A61C0
:100370004FF40063C4F20203FA794FEA0212D2B2D8
:100380005A614FF48063C4F202034FF48062C4F2F6
:100390000202526922F400425A61FFF781FF07F11D
:1003A0000807BD4680BD00BF80B500AF4FF001001B
:1003B0004FF00001FFF77CFF4FF0040000F030FA2F
:1003C00080BD00BF80B582B000AF7860FFF768FFE6
:1003D0000AE07B681B7818464FF00101FFF768FFC1
:1003E0007B6803F101037B607B681B78002BF0D1F5
:1003F00007F10807BD4680BD80B582B000AF024658
:100400000B46FA71BB71FB79012B14D1BB7903F157
:10041000FF324FEAE2734FEA1373D21802F00F0271
:10042000D31ADBB2A3F18003DBB218464FF0000110
:10043000FFF73EFF13E0BB7903F1FF324FEAE273AF
:100440004FEA1373D21802F00F02D31ADBB2A3F1F2
:100450004003DBB218464FF00001FFF729FF07F118
:100460000807BD4680BD00BF80B500AF4FF0060055
:100470004FF00101FFF7EAFE4FF40063C4F20203FC
:1004800045F255521A604FF48063C4F202034FF4F0
:100490008062C4F20202126842F480021A604FF4D1
:1004A0008063C4F202034FF48062C4F20202126855
:1004B00022F400021A604FF48063C4F202034FF486
:1004C0008062C4F20202126842F080621A604FF445
:1004D0008063C4F202034FF48062C4F20202126825
:1004E00022F000621A604FF48063C4F202034FF4FA
:1004F0008062C4F20202126842F080421A604FF435
:100500008063C4F202034FF48062C4F202021268F4
:1005100022F000421A604FF48063C4F202034FF4E9
:100520008062C4F20202526922F400625A614FF4FE
:100530008063C4F202034FF48062C4F20202526983
:1005400022F400525A614FF48063C4F202034FF464
:100550008062C4F20202526922F400425A614FF0F2
:10056000320000F05DF94FF48063C4F202034FF4EF
:100570008062C4F20202526942F400425A614FF0B2
:1005800003004FF00001FFF793FE4FF002004FF021
:100590000001FFF78DFE4FF0020000F041F94FF02F
:1005A00028004FF00001FFF783FE4FF006004FF0E8
:1005B0000001FFF77DFE4FF00C004FF00001FFF748
:1005C00077FEFFF7F1FE4FF080004FF00001FFF7DC
:1005D0006FFE80BD80B483B000AF03463960FB710D
:1005E00097F90730002B10DA4FF46D43CEF2000379
:1005F000FA7902F00F02A2F104013A68D2B24FEA8E
:100600000212D2B25B181A760DE04FF46143CEF2BB
:10061000000397F907103A68D2B24FEA0212D2B239
:100620005B1883F8002307F10C07BD4680BC7047B8
:1006300080B582B000AF78607A686FF07F439A42ED
:1006400002D94FF001031FE04EF21003CEF2000377
:100650007A6822F07F4202F1FF325A604FF0FF3099
:100660004FF00F01FFF7B6FF4EF21003CEF200037A
:100670004FF000029A604EF21003CEF200034FF0EA
:1006800007021A604FF00003184607F10807BD463D
:1006900080BD00BF90B589B000AF00F063F940F2B3
:1006A0000003C2F200031A6844F6D353C1F2620396
:1006B000A3FB02134FEA93131846FFF7B9FF4FF05D
:1006C00008004FF00101FFF7C1FD4FF44063C4F291
:1006D00002034FF44062C4F20202126842F0804208
:1006E0001A604FF44063C4F202034FF44062C4F254
:1006F0000202126822F000421A604FF44063C4F212
:1007000002034FF44062C4F20202526942F4004212
:100710005A614FF0640000F083F84FF44063C4F274
:1007200002034FF44062C4F20202526922F4004212
:100730005A614FF0640000F073F84FF44063C4F264
:1007400002034FF44062C4F20202526942F40042D2
:100750005A6140F68443C0F6000307F110040FCB42
:1007600084E80F0040F69843C0F600033C460FCBE8
:1007700084E80F00FFF778FEFFF716FE4FF0010048
:100780004FF00101FFF738FE07F110031846FFF79D
:1007900019FE4FF002004FF00101FFF72DFE3B461E
:1007A0001846FFF70FFE4FF44063C4F202034FF404
:1007B0004062C4F20202526922F400425A614FF4CC
:1007C0007A7000F02DF84FF44063C4F202034FF446
:1007D0004062C4F20202526942F400425A614FF48C
:1007E0007A7000F01DF8C7E780B400AF40F28C03C8
:1007F000C2F200031B889BB2002B0DD040F28C0389
:10080000C2F200031B889BB203F1FF339AB240F29D
:100810008C03C2F200031A80BD4680BC704700BF43
:1008200080B483B000AF78607B689AB240F28C03EA
:10083000C2F200031A8000BF40F28C03C2F2000330
:100840001B889BB2002BF7D107F10C07BD4680BC7B
:10085000704700BF0749084A084B9A42BEBF51F88B
:10086000040B42F8040BFFF7F8BF05488047054822
:1008700000470000C00C00080000002070000020AD
:1008800065090008DD0100083449354A002300F0FD
:1008900002B841F8043B9142FFF4FBAFFFF7FAFEC8
:1008A000FEE7FEE7FEE7FEE7FEE7FEE7FEE7FEE720
:1008B000FEE7FEE7FEE7FEE7FEE7FEE7FEE7FEE710
:1008C000FEE7FEE7FEE7FEE7FEE7FEE7FEE7FEE700
:1008D000FEE7FEE7FEE7FEE7FEE7FEE7FEE7FEE7F0
:1008E000FEE7FEE7FEE7FEE7FEE7FEE7FEE7FEE7E0
:1008F000FEE7FEE7FEE7FEE7FEE7FEE7FEE7FEE7D0
:10090000FEE7FEE7FEE7FEE7FEE7FEE7FEE7FEE7BF
:10091000FEE7FEE7FEE7FEE7FEE7FEE7FEE7FEE7AF
:10092000FEE7FEE7FEE7FEE7FEE7FEE7FEE7FEE79F
:10093000FEE7FEE7FEE7FEE7FEE7FEE7FEE7FEE78F
:10094000FEE7FEE7FEE7FEE7FEE7FEE7FEE7FEE77F
:10095000FEE7FEE7FEE7FEE7FEE70000700000208E
:100960008E00002080B500AF4FF46D43CEF200033F
:100970004FF46D42CEF20002D2F8882042F47002A9
:10098000C3F888204FF46053C4F202034FF460525E
:10099000C4F20202126842F001021A604FF460537E
:1009A000C4F202034FF000029A604FF46053C4F2A5
:1009B00002034FF46052C4F20202126822F0847201
:1009C00022F480321A604FF46053C4F2020343F2FF
:1009D0001002C2F200425A604FF46053C4F20203A4
:1009E0004FF46052C4F20202126822F480221A60AC
:1009F0004FF46053C4F202034FF00002DA6000F0DB
:100A000009F84FF46D43CEF200034FF000629A6094
:100A100080BD00BF80B483B000AF4FF000037B60A7
:100A20004FF000033B604FF46053C4F202034FF4F5
:100A30006052C4F20202126842F480321A604FF42B
:100A40006053C4F202031B6803F400333B607B680D
:100A500003F101037B603B68002B03D17B68B3F596
:100A6000C06FECD14FF46053C4F202031B6803F46F
:100A70000033002B03D04FF001033B6002E04FF046
:100A800000033B603B68012B40F082804FF46053D1
:100A9000C4F202034FF46052C4F20202126C42F03C
:100AA00080521A644FF4E043C4F200034FF4E04272
:100AB000C4F20002126842F480421A604FF460539C
:100AC000C4F202034FF46052C4F2020292689A60C8
:100AD0004FF46053C4F202034FF46052C4F20202B6
:100AE000926842F400429A604FF46053C4F20203E9
:100AF0004FF46052C4F20202926842F4A0529A602B
:100B00004FF46053C4F2020345F20842C0F240724F
:100B10005A604FF46053C4F202034FF46052C4F2BF
:100B20000202126842F080721A6000BF4FF46053F4
:100B3000C4F202031B6803F00073002BF6D04FF4DD
:100B40007053C4F2020340F205721A604FF460530E
:100B5000C4F202034FF46052C4F20202926822F01F
:100B600003029A604FF46053C4F202034FF46052E0
:100B7000C4F20202926842F002029A6000BF4FF48F
:100B80006053C4F202039B6803F00C03082BF6D1F8
:100B900007F10C07BD4680BC704700BF10B5034C81
:100BA00014B1AFF3008010BD204610BD000000005E
:100BB00008B5084B04461BB10021AFF3008001E0EB
:100BC00000F00CF8044B1868836A03B1984720467C
:100BD00000F04AF800000000B00C000870B5094BA6
:100BE000094CE41AA41003EB8406002502E07259B4
:100BF0009047013C043D002CF9D1BDE8704000F065
:100C00003BB800BF6C0000207000002070B50E4B98
:100C10000E4DED1AAD1000241E4603E056F82420B8
:100C200090470134AC42F9D100F020F8084D094B4F
:100C3000ED1AAD1000241E4603E056F8242090471C
:100C40000134AC42F9D170BD68000020680000207A
:100C50006C000020680000208218034601E003F8C1
:100C6000011B9342FBD17047FEE700BFF8B500BF00
:100C7000F8BC08BC9E467047F8B500BFF8BC08BC7D
:100C80009E4670474D2E20476F6B68616E2042452F
:100C90004B454E0000000000476F6B68616E426577
:100CA0006B656E2E636F6D00000000004300000056
:080CB000040000200000000018
:080CB80024F5FF7F010000009C
:100CC000007A030A0000000000000000000000009D
:100CD0000000000000000000000000000000000014
:100CE00000000000AC0C0008000000000000000044
:100CF00000000000000000000000000000000000F4
:100D000000000000000000000000000000000000E3
:100D100000000000000000000000000000000000D3
:100D20000000000000000000AD010008890100087B
:04000005080001DC12
:00000001FF
